:020000040000FA
:020000000C28CA
:08000800A0000308A10021087B
:100010008300A00E200E0900FF2383169000831298
:1000200085010730990083169F013E3085003630E8
:1000300095007F3081003630960083128B208B2014
:100040008B200B108B15850105080B106300851C98
:100050002D28051D2F288B202328312023283120EF
:10006000232850206C30A8005C206E30A8005C2053
:100070003630A8005C200030A8005C206620962066
:1000800050206C30A8005C206E30A8005C20363018
:10009000A8005C200030A8005C2066208B200800AF
:1000A0006530A60078207820A60B52280430A600E0
:1000B0009120A60B582808000830A700A81B6E2026
:1000C000A81F6620A80DA70B5E2808001B30A600FD
:1000D0007820A60B68288620862008001B30A60002
:1000E0007820A60B7028862086208620862008008F
:1000F00001308500000000000000000000008501C4
:100100008128822883288428852808008F30A2002F
:10011000A20B882808006430A3008620A30B8D283A
:100120000800D730A400A40B932808002330A500B2
:080130008620A50B98280800A9
:02400E00843FED
:0A42000000000100020003000400AA
:00000001FF
