:020000040000FA
:020000000C28CA
:08000800A0000308A10021087B
:100010008300A00E200E0900FF2383169000831298
:1000200085010730990083169F01383085003030F4
:1000300095007F3081001030960083128E208E2034
:100040008E200B108B15850105080B106300051E13
:100050002D28851E32288E202328342005149F2029
:10006000051023283420232853206C30A8005F205B
:100070006E30A8005F20B630A8005F200030A800D6
:100080005F206920992053206C30A8005F206E30DB
:10009000A8005F20B630A8005F200030A8005F20D5
:1000A00069208E2008006530A6007B207B20A60BEF
:1000B00055280430A6009420A60B5B2808000830C1
:1000C000A700A81B7120A81F6920A80DA70B6128F5
:1000D00008001B30A6007B20A60B6B2889208920F6
:1000E00008001B30A6007B20A60B732889208920DE
:1000F00089208920080004308500000000000000ED
:100100000000000085018428852886288728882803
:1001100008008F30A200A20B8B2808006430A300D7
:100120008920A30B90280800D730A400A40B9628A0
:1001300008002330A5008920A50B9B2808001F304C
:10014000A2004F30A300A20BA628A30BA328A82827
:020150000800A5
:02400E00843FED
:0A42000000000100020003000400AA
:00000001FF
