:020000040000FA
:020000000C28CA
:08000800A0000308A10021087B
:100010008300A00E200E0900FF2383169000831298
:1000200085010730990083169F01383085003030F4
:1000300095007F308100103096008312922092202C
:1000400092200B108B15850105080B106300051E0F
:100050002D28851E3628922023280514A32005105C
:10006000A320A320A320A3202D2823283820232841
:1000700057206C30A80063206E30A8006320B63093
:10008000A80063200030A80063206D209D20572029
:100090006C30A80063206E30A8006320B630A80042
:1000A00063200030A80063206D2092200800653096
:1000B000A6007F207F20A60B59280430A600982098
:1000C000A60B5F2808000830A700A81B7520A81FF2
:1000D0006D20A80DA70B652808001B30A6007F2007
:1000E000A60B6F288D208D2008001B30A6007F20D6
:1000F000A60B77288D208D208D208D2008000430C0
:100100008500000000000000000000008501882834
:1001100089288A288B288C2808008F30A200A20BFF
:100120008F2808006430A3008D20A30B94280800BA
:10013000D730A400A40B9A2808002330A5008D20F6
:10014000A50B9F2808001F30A2004F30A300A20B70
:0A015000AA28A30BA728AC2808007A
:02400E00843FED
:0A42000000000100020003000400AA
:00000001FF
